{
  "contractName": "Identity",
  "abi": [
    {
      "inputs": [
        {
          "internalType": "string[]",
          "name": "_attributes",
          "type": "string[]"
        }
      ],
      "name": "storeAttributes",
      "outputs": [],
      "stateMutability": "nonpayable",
      "type": "function"
    },
    {
      "inputs": [
        {
          "internalType": "address",
          "name": "_user",
          "type": "address"
        }
      ],
      "name": "getAttributes",
      "outputs": [
        {
          "internalType": "string[]",
          "name": "",
          "type": "string[]"
        }
      ],
      "stateMutability": "view",
      "type": "function",
      "constant": true
    },
    {
      "inputs": [
        {
          "internalType": "address",
          "name": "_withAddress",
          "type": "address"
        }
      ],
      "name": "shareAttributes",
      "outputs": [],
      "stateMutability": "nonpayable",
      "type": "function"
    },
    {
      "inputs": [
        {
          "internalType": "address",
          "name": "_fromAddress",
          "type": "address"
        }
      ],
      "name": "revokeAccess",
      "outputs": [],
      "stateMutability": "nonpayable",
      "type": "function"
    },
    {
      "inputs": [
        {
          "internalType": "address",
          "name": "_user",
          "type": "address"
        }
      ],
      "name": "hasAccess",
      "outputs": [
        {
          "internalType": "bool",
          "name": "",
          "type": "bool"
        }
      ],
      "stateMutability": "view",
      "type": "function",
      "constant": true
    },
    {
      "inputs": [
        {
          "internalType": "address",
          "name": "_user",
          "type": "address"
        },
        {
          "internalType": "string",
          "name": "documentHash",
          "type": "string"
        }
      ],
      "name": "storeDocument",
      "outputs": [],
      "stateMutability": "nonpayable",
      "type": "function"
    },
    {
      "inputs": [
        {
          "internalType": "address",
          "name": "_user",
          "type": "address"
        }
      ],
      "name": "getDocuments",
      "outputs": [
        {
          "internalType": "string[]",
          "name": "",
          "type": "string[]"
        }
      ],
      "stateMutability": "view",
      "type": "function",
      "constant": true
    },
    {
      "inputs": [
        {
          "internalType": "address",
          "name": "_user",
          "type": "address"
        },
        {
          "internalType": "address",
          "name": "_withAddress",
          "type": "address"
        },
        {
          "internalType": "string",
          "name": "documentHash",
          "type": "string"
        }
      ],
      "name": "shareDocument",
      "outputs": [],
      "stateMutability": "nonpayable",
      "type": "function"
    }
  ],
  "bytecode": "0x608060405234801561001057600080fd5b5061134d806100206000396000f3fe608060405234801561001057600080fd5b50600436106100885760003560e01c806395a078e81161005b57806395a078e814610125578063a83d480314610155578063c35e4e4214610171578063ed9bbe9f1461018d57610088565b806327f50a2d1461008d578063446d5aa4146100bd578063523204ed146100ed57806385e6853114610109575b600080fd5b6100a760048036038101906100a29190610c67565b6101a9565b6040516100b4919061100f565b60405180910390f35b6100d760048036038101906100d29190610c67565b610300565b6040516100e4919061100f565b60405180910390f35b61010760048036038101906101029190610c90565b61041a565b005b610123600480360381019061011e9190610c67565b610545565b005b61013f600480360381019061013a9190610c67565b61064e565b60405161014c9190611031565b60405180910390f35b61016f600480360381019061016a9190610d4b565b6106e3565b005b61018b60048036038101906101869190610c67565b6107c9565b005b6101a760048036038101906101a29190610cf7565b6108d2565b005b60606000808373ffffffffffffffffffffffffffffffffffffffff1673ffffffffffffffffffffffffffffffffffffffff16815260200190815260200160002060030160003373ffffffffffffffffffffffffffffffffffffffff1673ffffffffffffffffffffffffffffffffffffffff168152602001908152602001600020805480602002602001604051908101604052809291908181526020016000905b828210156102f55783829060005260206000200180546102689061125f565b80601f01602080910402602001604051908101604052809291908181526020018280546102949061125f565b80156102e15780601f106102b6576101008083540402835291602001916102e1565b820191906000526020600020905b8154815290600101906020018083116102c457829003601f168201915b505050505081526020019060010190610249565b505050509050919050565b60606000808373ffffffffffffffffffffffffffffffffffffffff1673ffffffffffffffffffffffffffffffffffffffff168152602001908152602001600020600101805480602002602001604051908101604052809291908181526020016000905b8282101561040f5783829060005260206000200180546103829061125f565b80601f01602080910402602001604051908101604052809291908181526020018280546103ae9061125f565b80156103fb5780601f106103d0576101008083540402835291602001916103fb565b820191906000526020600020905b8154815290600101906020018083116103de57829003601f168201915b505050505081526020019060010190610363565b505050509050919050565b8273ffffffffffffffffffffffffffffffffffffffff163373ffffffffffffffffffffffffffffffffffffffff1614610488576040517f08c379a000000000000000000000000000000000000000000000000000000000815260040161047f9061108c565b60405180910390fd5b6000808473ffffffffffffffffffffffffffffffffffffffff1673ffffffffffffffffffffffffffffffffffffffff16815260200190815260200160002060030160008373ffffffffffffffffffffffffffffffffffffffff1673ffffffffffffffffffffffffffffffffffffffff1681526020019081526020016000208190806001815401808255809150506001900390600052602060002001600090919091909150908051906020019061053f9291906109fc565b50505050565b8073ffffffffffffffffffffffffffffffffffffffff163373ffffffffffffffffffffffffffffffffffffffff1614156105b4576040517f08c379a00000000000000000000000000000000000000000000000000000000081526004016105ab906110cc565b60405180910390fd5b60008060008373ffffffffffffffffffffffffffffffffffffffff1673ffffffffffffffffffffffffffffffffffffffff16815260200190815260200160002060020160003373ffffffffffffffffffffffffffffffffffffffff1673ffffffffffffffffffffffffffffffffffffffff16815260200190815260200160002060006101000a81548160ff02191690831515021790555050565b60008060008373ffffffffffffffffffffffffffffffffffffffff1673ffffffffffffffffffffffffffffffffffffffff16815260200190815260200160002060020160003373ffffffffffffffffffffffffffffffffffffffff1673ffffffffffffffffffffffffffffffffffffffff16815260200190815260200160002060009054906101000a900460ff169050919050565b6000815111610727576040517f08c379a000000000000000000000000000000000000000000000000000000000815260040161071e9061104c565b60405180910390fd5b60008060003373ffffffffffffffffffffffffffffffffffffffff1673ffffffffffffffffffffffffffffffffffffffff1681526020019081526020016000209050338160000160006101000a81548173ffffffffffffffffffffffffffffffffffffffff021916908373ffffffffffffffffffffffffffffffffffffffff160217905550818160010190805190602001906107c4929190610a82565b505050565b8073ffffffffffffffffffffffffffffffffffffffff163373ffffffffffffffffffffffffffffffffffffffff161415610838576040517f08c379a000000000000000000000000000000000000000000000000000000000815260040161082f906110ac565b60405180910390fd5b60016000803373ffffffffffffffffffffffffffffffffffffffff1673ffffffffffffffffffffffffffffffffffffffff16815260200190815260200160002060020160008373ffffffffffffffffffffffffffffffffffffffff1673ffffffffffffffffffffffffffffffffffffffff16815260200190815260200160002060006101000a81548160ff02191690831515021790555050565b8173ffffffffffffffffffffffffffffffffffffffff163373ffffffffffffffffffffffffffffffffffffffff1614610940576040517f08c379a00000000000000000000000000000000000000000000000000000000081526004016109379061106c565b60405180910390fd5b6000808373ffffffffffffffffffffffffffffffffffffffff1673ffffffffffffffffffffffffffffffffffffffff16815260200190815260200160002060030160003373ffffffffffffffffffffffffffffffffffffffff1673ffffffffffffffffffffffffffffffffffffffff168152602001908152602001600020819080600181540180825580915050600190039060005260206000200160009091909190915090805190602001906109f79291906109fc565b505050565b828054610a089061125f565b90600052602060002090601f016020900481019282610a2a5760008555610a71565b82601f10610a4357805160ff1916838001178555610a71565b82800160010185558215610a71579182015b82811115610a70578251825591602001919060010190610a55565b5b509050610a7e9190610ae2565b5090565b828054828255906000526020600020908101928215610ad1579160200282015b82811115610ad0578251829080519060200190610ac09291906109fc565b5091602001919060010190610aa2565b5b509050610ade9190610aff565b5090565b5b80821115610afb576000816000905550600101610ae3565b5090565b5b80821115610b1f5760008181610b169190610b23565b50600101610b00565b5090565b508054610b2f9061125f565b6000825580601f10610b415750610b60565b601f016020900490600052602060002090810190610b5f9190610ae2565b5b50565b6000610b76610b718461111d565b6110ec565b9050808382526020820190508260005b85811015610bb65781358501610b9c8882610c3d565b845260208401935060208301925050600181019050610b86565b5050509392505050565b6000610bd3610bce84611149565b6110ec565b905082815260208101848484011115610beb57600080fd5b610bf684828561121d565b509392505050565b600081359050610c0d81611300565b92915050565b600082601f830112610c2457600080fd5b8135610c34848260208601610b63565b91505092915050565b600082601f830112610c4e57600080fd5b8135610c5e848260208601610bc0565b91505092915050565b600060208284031215610c7957600080fd5b6000610c8784828501610bfe565b91505092915050565b600080600060608486031215610ca557600080fd5b6000610cb386828701610bfe565b9350506020610cc486828701610bfe565b925050604084013567ffffffffffffffff811115610ce157600080fd5b610ced86828701610c3d565b9150509250925092565b60008060408385031215610d0a57600080fd5b6000610d1885828601610bfe565b925050602083013567ffffffffffffffff811115610d3557600080fd5b610d4185828601610c3d565b9150509250929050565b600060208284031215610d5d57600080fd5b600082013567ffffffffffffffff811115610d7757600080fd5b610d8384828501610c13565b91505092915050565b6000610d988383610e24565b905092915050565b6000610dab82611189565b610db581856111ac565b935083602082028501610dc785611179565b8060005b85811015610e035784840389528151610de48582610d8c565b9450610def8361119f565b925060208a01995050600181019050610dcb565b50829750879550505050505092915050565b610e1e816111f1565b82525050565b6000610e2f82611194565b610e3981856111bd565b9350610e4981856020860161122c565b610e52816112ef565b840191505092915050565b6000610e6a601a836111ce565b91507f417474726962757465732063616e6e6f7420626520656d7074790000000000006000830152602082019050919050565b6000610eaa6027836111ce565b91507f4f6e6c792074686520757365722063616e2073746f726520746865697220646f60008301527f63756d656e7473000000000000000000000000000000000000000000000000006020830152604082019050919050565b6000610f106027836111ce565b91507f4f6e6c792074686520757365722063616e20736861726520746865697220646f60008301527f63756d656e7473000000000000000000000000000000000000000000000000006020830152604082019050919050565b6000610f76601a836111ce565b91507f43616e6e6f74207368617265207769746820796f757273656c660000000000006000830152602082019050919050565b6000610fb66022836111ce565b91507f43616e6e6f74207265766f6b65206163636573732066726f6d20796f7572736560008301527f6c660000000000000000000000000000000000000000000000000000000000006020830152604082019050919050565b600060208201905081810360008301526110298184610da0565b905092915050565b60006020820190506110466000830184610e15565b92915050565b6000602082019050818103600083015261106581610e5d565b9050919050565b6000602082019050818103600083015261108581610e9d565b9050919050565b600060208201905081810360008301526110a581610f03565b9050919050565b600060208201905081810360008301526110c581610f69565b9050919050565b600060208201905081810360008301526110e581610fa9565b9050919050565b6000604051905081810181811067ffffffffffffffff82111715611113576111126112c0565b5b8060405250919050565b600067ffffffffffffffff821115611138576111376112c0565b5b602082029050602081019050919050565b600067ffffffffffffffff821115611164576111636112c0565b5b601f19601f8301169050602081019050919050565b6000819050602082019050919050565b600081519050919050565b600081519050919050565b6000602082019050919050565b600082825260208201905092915050565b600082825260208201905092915050565b600082825260208201905092915050565b60006111ea826111fd565b9050919050565b60008115159050919050565b600073ffffffffffffffffffffffffffffffffffffffff82169050919050565b82818337600083830152505050565b60005b8381101561124a57808201518184015260208101905061122f565b83811115611259576000848401525b50505050565b6000600282049050600182168061127757607f821691505b6020821081141561128b5761128a611291565b5b50919050565b7f4e487b7100000000000000000000000000000000000000000000000000000000600052602260045260246000fd5b7f4e487b7100000000000000000000000000000000000000000000000000000000600052604160045260246000fd5b6000601f19601f8301169050919050565b611309816111df565b811461131457600080fd5b5056fea2646970667358221220998d145287abb3d050ccf87b2f0b3d24d0d1d77b86377aebd8e3b3007a16cc3c64736f6c63430008000033",
  "immutableReferences": {},
  "source": "// SPDX-License-Identifier: MIT\npragma solidity ^0.8.0;\n\ncontract Identity {\n    struct User {\n        address userAddress;\n        string[] attributes;  // User's attributes like name, age, email\n        mapping(address => bool) sharedWith;  // Addresses with access to attributes\n        mapping(address => string[]) documents;  // Document hashes shared with specific addresses\n    }\n\n    mapping(address => User) private users;\n\n    // Function to create and store a user's attributes (name, age, email)\n    function storeAttributes(string[] memory _attributes) public {\n        require(_attributes.length > 0, \"Attributes cannot be empty\");  // Ensure attributes are not empty\n        User storage user = users[msg.sender];\n        user.userAddress = msg.sender;\n        user.attributes = _attributes;\n    }\n\n    // Function to retrieve all attributes of a user (only public, not shared)\n    function getAttributes(address _user) public view returns (string[] memory) {\n        return users[_user].attributes;\n    }\n\n    // Function to share user's attributes with another address\n    function shareAttributes(address _withAddress) public {\n        require(msg.sender != _withAddress, \"Cannot share with yourself\");\n        users[msg.sender].sharedWith[_withAddress] = true;\n    }\n\n    // Function to revoke access to shared attributes for a specific address\n    function revokeAccess(address _fromAddress) public {\n        require(msg.sender != _fromAddress, \"Cannot revoke access from yourself\");\n        users[_fromAddress].sharedWith[msg.sender] = false;\n    }\n\n    // Function to check if a specific address has access to the user's attributes\n    function hasAccess(address _user) public view returns (bool) {\n        return users[_user].sharedWith[msg.sender];\n    }\n\n    // Function to store a document hash (e.g., from IPFS) and associate it with the user\n    function storeDocument(address _user, string memory documentHash) public {\n        require(msg.sender == _user, \"Only the user can store their documents\");\n        users[_user].documents[msg.sender].push(documentHash);\n    }\n\n    // Function to get documents associated with a specific user\n    function getDocuments(address _user) public view returns (string[] memory) {\n        return users[_user].documents[msg.sender];\n    }\n\n    // Function to share documents with other users\n    function shareDocument(address _user, address _withAddress, string memory documentHash) public {\n        require(msg.sender == _user, \"Only the user can share their documents\");\n        users[_user].documents[_withAddress].push(documentHash);\n    }\n}\n\n",
  "sourcePath": "C:\\Users\\user\\decentralized-identity-app\\contracts\\Identity.sol",
  "compiler": {
    "name": "solc",
    "version": "0.8.0+commit.c7dfd78e.Emscripten.clang"
  },
  "schemaVersion": "3.4.16",
  "updatedAt": "2025-01-09T16:44:36.158Z",
  "networkType": "ethereum",
  "devdoc": {
    "kind": "dev",
    "methods": {},
    "version": 1
  },
  "userdoc": {
    "kind": "user",
    "methods": {},
    "version": 1
  }
}